{
  "_format": "hh3-artifact-1",
  "contractName": "EscrowFactory",
  "sourceName": "contracts/EscrowFactory.sol",
  "abi": [
    {
      "inputs": [],
      "stateMutability": "nonpayable",
      "type": "constructor"
    },
    {
      "inputs": [],
      "name": "ReentrancyGuardReentrantCall",
      "type": "error"
    },
    {
      "inputs": [
        {
          "internalType": "address",
          "name": "token",
          "type": "address"
        }
      ],
      "name": "SafeERC20FailedOperation",
      "type": "error"
    },
    {
      "anonymous": false,
      "inputs": [
        {
          "indexed": true,
          "internalType": "address",
          "name": "newAIArbiter",
          "type": "address"
        }
      ],
      "name": "AIArbiterUpdated",
      "type": "event"
    },
    {
      "anonymous": false,
      "inputs": [
        {
          "indexed": false,
          "internalType": "uint16",
          "name": "protocolFeeBps",
          "type": "uint16"
        },
        {
          "indexed": false,
          "internalType": "uint256",
          "name": "aiArbiterFee",
          "type": "uint256"
        }
      ],
      "name": "FeesUpdated",
      "type": "event"
    },
    {
      "anonymous": false,
      "inputs": [
        {
          "indexed": true,
          "internalType": "address",
          "name": "to",
          "type": "address"
        },
        {
          "indexed": false,
          "internalType": "uint256",
          "name": "amount",
          "type": "uint256"
        }
      ],
      "name": "FeesWithdrawn",
      "type": "event"
    },
    {
      "anonymous": false,
      "inputs": [
        {
          "indexed": true,
          "internalType": "address",
          "name": "contractAddress",
          "type": "address"
        },
        {
          "indexed": true,
          "internalType": "address",
          "name": "depositor",
          "type": "address"
        },
        {
          "indexed": true,
          "internalType": "address",
          "name": "beneficiary",
          "type": "address"
        },
        {
          "indexed": false,
          "internalType": "address",
          "name": "arbiter",
          "type": "address"
        },
        {
          "indexed": false,
          "internalType": "uint256",
          "name": "totalAmount",
          "type": "uint256"
        },
        {
          "indexed": false,
          "internalType": "uint256",
          "name": "fee",
          "type": "uint256"
        },
        {
          "indexed": false,
          "internalType": "uint8",
          "name": "trustTier",
          "type": "uint8"
        },
        {
          "indexed": false,
          "internalType": "bool",
          "name": "aiArbiter",
          "type": "bool"
        },
        {
          "indexed": false,
          "internalType": "address",
          "name": "token",
          "type": "address"
        }
      ],
      "name": "MilestoneEscrowCreated",
      "type": "event"
    },
    {
      "anonymous": false,
      "inputs": [
        {
          "indexed": true,
          "internalType": "address",
          "name": "referrer",
          "type": "address"
        },
        {
          "indexed": false,
          "internalType": "uint256",
          "name": "amount",
          "type": "uint256"
        }
      ],
      "name": "ReferralClaimed",
      "type": "event"
    },
    {
      "anonymous": false,
      "inputs": [
        {
          "indexed": true,
          "internalType": "address",
          "name": "referrer",
          "type": "address"
        },
        {
          "indexed": true,
          "internalType": "address",
          "name": "escrow",
          "type": "address"
        },
        {
          "indexed": false,
          "internalType": "uint256",
          "name": "amount",
          "type": "uint256"
        }
      ],
      "name": "ReferralCredited",
      "type": "event"
    },
    {
      "anonymous": false,
      "inputs": [
        {
          "indexed": false,
          "internalType": "uint16",
          "name": "newShareBps",
          "type": "uint16"
        }
      ],
      "name": "ReferralShareUpdated",
      "type": "event"
    },
    {
      "anonymous": false,
      "inputs": [
        {
          "indexed": true,
          "internalType": "address",
          "name": "contractAddress",
          "type": "address"
        },
        {
          "indexed": true,
          "internalType": "address",
          "name": "depositor",
          "type": "address"
        },
        {
          "indexed": true,
          "internalType": "address",
          "name": "beneficiary",
          "type": "address"
        },
        {
          "indexed": false,
          "internalType": "address",
          "name": "arbiter",
          "type": "address"
        },
        {
          "indexed": false,
          "internalType": "uint256",
          "name": "amount",
          "type": "uint256"
        },
        {
          "indexed": false,
          "internalType": "uint256",
          "name": "fee",
          "type": "uint256"
        },
        {
          "indexed": false,
          "internalType": "uint8",
          "name": "trustTier",
          "type": "uint8"
        },
        {
          "indexed": false,
          "internalType": "bool",
          "name": "aiArbiter",
          "type": "bool"
        },
        {
          "indexed": false,
          "internalType": "address",
          "name": "token",
          "type": "address"
        }
      ],
      "name": "SimpleEscrowCreated",
      "type": "event"
    },
    {
      "anonymous": false,
      "inputs": [
        {
          "indexed": true,
          "internalType": "address",
          "name": "newTreasury",
          "type": "address"
        }
      ],
      "name": "TreasuryUpdated",
      "type": "event"
    },
    {
      "inputs": [],
      "name": "accumulatedFees",
      "outputs": [
        {
          "internalType": "uint256",
          "name": "",
          "type": "uint256"
        }
      ],
      "stateMutability": "view",
      "type": "function"
    },
    {
      "inputs": [],
      "name": "aiArbiterAddress",
      "outputs": [
        {
          "internalType": "address",
          "name": "",
          "type": "address"
        }
      ],
      "stateMutability": "view",
      "type": "function"
    },
    {
      "inputs": [],
      "name": "aiArbiterFee",
      "outputs": [
        {
          "internalType": "uint256",
          "name": "",
          "type": "uint256"
        }
      ],
      "stateMutability": "view",
      "type": "function"
    },
    {
      "inputs": [],
      "name": "claimReferralEarnings",
      "outputs": [],
      "stateMutability": "nonpayable",
      "type": "function"
    },
    {
      "inputs": [
        {
          "internalType": "address",
          "name": "beneficiary",
          "type": "address"
        },
        {
          "internalType": "address",
          "name": "arbiter",
          "type": "address"
        },
        {
          "internalType": "string[]",
          "name": "descriptions",
          "type": "string[]"
        },
        {
          "internalType": "uint256[]",
          "name": "amounts",
          "type": "uint256[]"
        },
        {
          "internalType": "uint8",
          "name": "trustTier",
          "type": "uint8"
        },
        {
          "internalType": "bool",
          "name": "useAIArbiter",
          "type": "bool"
        },
        {
          "internalType": "address",
          "name": "token",
          "type": "address"
        },
        {
          "internalType": "address",
          "name": "referrer",
          "type": "address"
        }
      ],
      "name": "createMilestoneEscrow",
      "outputs": [
        {
          "internalType": "address",
          "name": "escrowOut",
          "type": "address"
        }
      ],
      "stateMutability": "payable",
      "type": "function"
    },
    {
      "inputs": [
        {
          "internalType": "address",
          "name": "beneficiary",
          "type": "address"
        },
        {
          "internalType": "address",
          "name": "arbiter",
          "type": "address"
        },
        {
          "internalType": "uint8",
          "name": "trustTier",
          "type": "uint8"
        },
        {
          "internalType": "bool",
          "name": "useAIArbiter",
          "type": "bool"
        },
        {
          "internalType": "address",
          "name": "token",
          "type": "address"
        },
        {
          "internalType": "address",
          "name": "referrer",
          "type": "address"
        }
      ],
      "name": "createSimpleEscrow",
      "outputs": [
        {
          "internalType": "address",
          "name": "escrowOut",
          "type": "address"
        }
      ],
      "stateMutability": "payable",
      "type": "function"
    },
    {
      "inputs": [],
      "name": "escrowCount",
      "outputs": [
        {
          "internalType": "uint256",
          "name": "",
          "type": "uint256"
        }
      ],
      "stateMutability": "view",
      "type": "function"
    },
    {
      "inputs": [
        {
          "internalType": "address",
          "name": "",
          "type": "address"
        }
      ],
      "name": "escrowIndex",
      "outputs": [
        {
          "internalType": "uint256",
          "name": "",
          "type": "uint256"
        }
      ],
      "stateMutability": "view",
      "type": "function"
    },
    {
      "inputs": [
        {
          "internalType": "uint256",
          "name": "",
          "type": "uint256"
        }
      ],
      "name": "escrows",
      "outputs": [
        {
          "internalType": "address",
          "name": "contractAddress",
          "type": "address"
        },
        {
          "internalType": "enum EscrowFactory.EscrowType",
          "name": "escrowType",
          "type": "uint8"
        },
        {
          "internalType": "address",
          "name": "depositor",
          "type": "address"
        },
        {
          "internalType": "address",
          "name": "beneficiary",
          "type": "address"
        },
        {
          "internalType": "address",
          "name": "arbiter",
          "type": "address"
        },
        {
          "internalType": "uint256",
          "name": "totalAmount",
          "type": "uint256"
        },
        {
          "internalType": "uint256",
          "name": "fee",
          "type": "uint256"
        },
        {
          "internalType": "uint8",
          "name": "trustTier",
          "type": "uint8"
        },
        {
          "internalType": "bool",
          "name": "aiArbiter",
          "type": "bool"
        },
        {
          "internalType": "uint256",
          "name": "createdAt",
          "type": "uint256"
        },
        {
          "internalType": "address",
          "name": "referrer",
          "type": "address"
        },
        {
          "internalType": "address",
          "name": "token",
          "type": "address"
        }
      ],
      "stateMutability": "view",
      "type": "function"
    },
    {
      "inputs": [
        {
          "internalType": "address",
          "name": "",
          "type": "address"
        },
        {
          "internalType": "uint256",
          "name": "",
          "type": "uint256"
        }
      ],
      "name": "escrowsByBeneficiary",
      "outputs": [
        {
          "internalType": "uint256",
          "name": "",
          "type": "uint256"
        }
      ],
      "stateMutability": "view",
      "type": "function"
    },
    {
      "inputs": [
        {
          "internalType": "address",
          "name": "",
          "type": "address"
        },
        {
          "internalType": "uint256",
          "name": "",
          "type": "uint256"
        }
      ],
      "name": "escrowsByDepositor",
      "outputs": [
        {
          "internalType": "uint256",
          "name": "",
          "type": "uint256"
        }
      ],
      "stateMutability": "view",
      "type": "function"
    },
    {
      "inputs": [
        {
          "internalType": "uint256",
          "name": "offset",
          "type": "uint256"
        },
        {
          "internalType": "uint256",
          "name": "limit",
          "type": "uint256"
        }
      ],
      "name": "getEscrows",
      "outputs": [
        {
          "components": [
            {
              "internalType": "address",
              "name": "contractAddress",
              "type": "address"
            },
            {
              "internalType": "enum EscrowFactory.EscrowType",
              "name": "escrowType",
              "type": "uint8"
            },
            {
              "internalType": "address",
              "name": "depositor",
              "type": "address"
            },
            {
              "internalType": "address",
              "name": "beneficiary",
              "type": "address"
            },
            {
              "internalType": "address",
              "name": "arbiter",
              "type": "address"
            },
            {
              "internalType": "uint256",
              "name": "totalAmount",
              "type": "uint256"
            },
            {
              "internalType": "uint256",
              "name": "fee",
              "type": "uint256"
            },
            {
              "internalType": "uint8",
              "name": "trustTier",
              "type": "uint8"
            },
            {
              "internalType": "bool",
              "name": "aiArbiter",
              "type": "bool"
            },
            {
              "internalType": "uint256",
              "name": "createdAt",
              "type": "uint256"
            },
            {
              "internalType": "address",
              "name": "referrer",
              "type": "address"
            },
            {
              "internalType": "address",
              "name": "token",
              "type": "address"
            }
          ],
          "internalType": "struct EscrowFactory.EscrowRecord[]",
          "name": "",
          "type": "tuple[]"
        }
      ],
      "stateMutability": "view",
      "type": "function"
    },
    {
      "inputs": [
        {
          "internalType": "address",
          "name": "beneficiary",
          "type": "address"
        }
      ],
      "name": "getEscrowsByBeneficiary",
      "outputs": [
        {
          "internalType": "uint256[]",
          "name": "",
          "type": "uint256[]"
        }
      ],
      "stateMutability": "view",
      "type": "function"
    },
    {
      "inputs": [
        {
          "internalType": "address",
          "name": "depositor",
          "type": "address"
        }
      ],
      "name": "getEscrowsByDepositor",
      "outputs": [
        {
          "internalType": "uint256[]",
          "name": "",
          "type": "uint256[]"
        }
      ],
      "stateMutability": "view",
      "type": "function"
    },
    {
      "inputs": [
        {
          "internalType": "address",
          "name": "wallet",
          "type": "address"
        }
      ],
      "name": "getReferralStats",
      "outputs": [
        {
          "internalType": "uint256",
          "name": "count",
          "type": "uint256"
        },
        {
          "internalType": "uint256",
          "name": "earned",
          "type": "uint256"
        },
        {
          "internalType": "uint256",
          "name": "claimable",
          "type": "uint256"
        }
      ],
      "stateMutability": "view",
      "type": "function"
    },
    {
      "inputs": [],
      "name": "owner",
      "outputs": [
        {
          "internalType": "address",
          "name": "",
          "type": "address"
        }
      ],
      "stateMutability": "view",
      "type": "function"
    },
    {
      "inputs": [],
      "name": "protocolFeeBps",
      "outputs": [
        {
          "internalType": "uint16",
          "name": "",
          "type": "uint16"
        }
      ],
      "stateMutability": "view",
      "type": "function"
    },
    {
      "inputs": [
        {
          "internalType": "uint256",
          "name": "netTotal",
          "type": "uint256"
        },
        {
          "internalType": "bool",
          "name": "_useAIArbiter",
          "type": "bool"
        }
      ],
      "name": "quoteMilestone",
      "outputs": [
        {
          "internalType": "uint256",
          "name": "total",
          "type": "uint256"
        },
        {
          "internalType": "uint256",
          "name": "fee",
          "type": "uint256"
        }
      ],
      "stateMutability": "view",
      "type": "function"
    },
    {
      "inputs": [
        {
          "internalType": "uint256",
          "name": "escrowAmount",
          "type": "uint256"
        },
        {
          "internalType": "bool",
          "name": "_useAIArbiter",
          "type": "bool"
        }
      ],
      "name": "quoteSimple",
      "outputs": [
        {
          "internalType": "uint256",
          "name": "total",
          "type": "uint256"
        },
        {
          "internalType": "uint256",
          "name": "fee",
          "type": "uint256"
        }
      ],
      "stateMutability": "view",
      "type": "function"
    },
    {
      "inputs": [
        {
          "internalType": "address",
          "name": "",
          "type": "address"
        }
      ],
      "name": "referralCount",
      "outputs": [
        {
          "internalType": "uint256",
          "name": "",
          "type": "uint256"
        }
      ],
      "stateMutability": "view",
      "type": "function"
    },
    {
      "inputs": [
        {
          "internalType": "address",
          "name": "",
          "type": "address"
        }
      ],
      "name": "referralEarnings",
      "outputs": [
        {
          "internalType": "uint256",
          "name": "",
          "type": "uint256"
        }
      ],
      "stateMutability": "view",
      "type": "function"
    },
    {
      "inputs": [],
      "name": "referralShareBps",
      "outputs": [
        {
          "internalType": "uint16",
          "name": "",
          "type": "uint16"
        }
      ],
      "stateMutability": "view",
      "type": "function"
    },
    {
      "inputs": [
        {
          "internalType": "address",
          "name": "",
          "type": "address"
        }
      ],
      "name": "referralTotalEarned",
      "outputs": [
        {
          "internalType": "uint256",
          "name": "",
          "type": "uint256"
        }
      ],
      "stateMutability": "view",
      "type": "function"
    },
    {
      "inputs": [
        {
          "internalType": "address",
          "name": "_aiArbiter",
          "type": "address"
        }
      ],
      "name": "setAIArbiter",
      "outputs": [],
      "stateMutability": "nonpayable",
      "type": "function"
    },
    {
      "inputs": [
        {
          "internalType": "uint16",
          "name": "_protocolFeeBps",
          "type": "uint16"
        },
        {
          "internalType": "uint256",
          "name": "_aiArbiterFee",
          "type": "uint256"
        }
      ],
      "name": "setFees",
      "outputs": [],
      "stateMutability": "nonpayable",
      "type": "function"
    },
    {
      "inputs": [
        {
          "internalType": "uint16",
          "name": "_referralShareBps",
          "type": "uint16"
        }
      ],
      "name": "setReferralShare",
      "outputs": [],
      "stateMutability": "nonpayable",
      "type": "function"
    },
    {
      "inputs": [
        {
          "internalType": "address",
          "name": "_treasury",
          "type": "address"
        }
      ],
      "name": "setTreasury",
      "outputs": [],
      "stateMutability": "nonpayable",
      "type": "function"
    },
    {
      "inputs": [
        {
          "internalType": "address",
          "name": "newOwner",
          "type": "address"
        }
      ],
      "name": "transferOwnership",
      "outputs": [],
      "stateMutability": "nonpayable",
      "type": "function"
    },
    {
      "inputs": [],
      "name": "treasury",
      "outputs": [
        {
          "internalType": "address",
          "name": "",
          "type": "address"
        }
      ],
      "stateMutability": "view",
      "type": "function"
    },
    {
      "inputs": [],
      "name": "withdrawFees",
      "outputs": [],
      "stateMutability": "nonpayable",
      "type": "function"
    }
  ],
  "bytecode": "0x608080604052346100825760017f9b779b17422d0df92223018b32b4d1fa46e071723d6817e2486d003becc55f008190558054670de0b6b3a76400006002556004805461ffff19166107d01790555f80546001600160a01b031916339081179091556001600160b01b031990911617601960a11b17905561444b90816100878239f35b5f80fdfe6080604052600436101562000012575f80fd5b5f3560e01c8063012f52ee1462001a1b57806321bade1314620019c057806327bf78fe146200194657806335659fb81462001920578063396c170314620016905780633d73b67614620018d0578063476343ee146200181b57806347c9bc2d14620017f857806347e5dc2014620016fc5780634bb36d6a14620016d2578063541ebadd146200169657806356e7359e1462001690578063587f5ed7146200167157806361d027b31462001647578063675ac67a14620016285780636a2848cd14620015ca57806373a095e6146200153657806384ae48b5146200144e57806389f2c5cd1462000ae55780638da5cb5b1462000abc5780639b673ee61462000a9d578063a0aacb4414620009e0578063b9136da014620004e5578063c07b528a14620004a9578063c81a3d4914620003ff578063cfb3dac614620003c3578063db74559b1462000387578063f0f4426014620002d7578063f2fde38b14620002525763fd7fda241462000182575f80fd5b346200024e5760403660031901126200024e576200019f62001d31565b60243590620001b960018060a01b035f5416331462001d88565b61ffff81166101f481116200021a577f31271ce94c738058639c8967d9a5cd2f3efdbe09de899b76cf715652a725bf8d926040926001549061ffff60a01b9060a01b169061ffff60a01b1916176001558060025582519182526020820152a1005b60405162461bcd60e51b815260206004820152600c60248201526b08ccaca40e8dede40d0d2ced60a31b6044820152606490fd5b5f80fd5b346200024e5760203660031901126200024e576200026f62001b60565b5f54906001600160a01b03906200028a338385161462001d88565b16908115620002a2576001600160a01b031916175f55005b60405162461bcd60e51b815260206004820152600d60248201526c24b73b30b634b21037bbb732b960991b6044820152606490fd5b346200024e5760203660031901126200024e57620002f462001b60565b5f546001600160a01b0391906200030f908316331462001d88565b1680156200034f57600180546001600160a01b031916821790557f7dae230f18360d76a040c81f050aa14eb9d6dc7901b20fc5d855e2a20fe814d15f80a2005b60405162461bcd60e51b815260206004820152601060248201526f496e76616c696420747265617375727960801b6044820152606490fd5b346200024e5760203660031901126200024e576001600160a01b03620003ac62001b60565b165f526006602052602060405f2054604051908152f35b346200024e5760203660031901126200024e576001600160a01b03620003e862001b60565b165f52600c602052602060405f2054604051908152f35b346200024e5760203660031901126200024e5761ffff6200041f62001d31565b6200043560018060a01b035f5416331462001d88565b1661138881116200047a576020817f294267924c1aa1e1808bacc2b4e9f4dd2ff4cd6f4e45fdccff64ee18805aecc49261ffff196004541617600455604051908152a1005b60405162461bcd60e51b81526020600482015260076024820152664d61782035302560c81b6044820152606490fd5b346200024e5760203660031901126200024e576001600160a01b03620004ce62001b60565b165f526005602052602060405f2054604051908152f35b60c03660031901126200024e57620004fc62001b60565b6200050662001b77565b60ff60443516604435036200024e576064351515606435036200024e576084356001600160a01b03811690036200024e5760a4356001600160a01b03811690036200024e576200055f600260ff60443516111562001fef565b6084356001600160a01b0316620009ce576200057d3415156200207d565b6200058762001dc1565b5f60208201523360408201526001600160a01b03838116606083015260443560ff1660e083015260643515801561010084015260a435821661014084015242610120840152608435909116610160830152909190620009c757506008546001600160a01b0316915b620006056001600160a01b0384161515620020ba565b6001600160a01b03838116608084015260843516620007da576200062c6064353462002391565b90936200063c8260035462001d6c565b6003558460a08501528160c08501526040519081610b558101106001600160401b03610b5584011117620007c657610b55620038c1833933610b5583019081526001600160a01b0385811660208301529190911660408201525f60608201819052908290036080019190f08015620007bb576001600160a01b0316803b156200024e575f6024956040519687809263b6b55f2560e01b8252806004830152855af1918215620007bb576020956200070193620007a9575b508185523460a43562002278565b505b6200070e8262002416565b815160808084015160a08581015160c080880151604080516001600160a01b039687168152602081019490945283015260ff604435166060830152606435151594820194909452608435831691810191909152938116933393909116917f3c14757009bd552ee12509c68577aef24fd027570e83ecacf93182b08a681d749190819081015b0390a4516040516001600160a01b039091168152f35b620007b49062001cc6565b86620006f3565b6040513d5f823e3d90fd5b634e487b7160e01b5f52604160045260245ffd5b604051636eb1769f60e11b81523360048201523060248201526020816044816001600160a01b03608435165afa908115620007bb575f916200098f575b5062000825811515620020f9565b6200083e8130336084356001600160a01b031662002188565b6127106200085661ffff60015460a01c168362001d43565b046064356200097b575b6200086d8183116200213b565b62000879818362001d7a565b94620008888260035462001d6c565b6003558560a08601528160c08601526040519081610b558101106001600160401b03610b5584011117620007c657610b55620038c1833933610b5583019081526001600160a01b03868116602083015291821660408201526084359091166060820152819003608001905ff08015620007bb576001600160a01b0390811691906200091b90879084906084351662002215565b813b156200024e576040519563b6b55f2560e01b875260048701525f8660248183865af1928315620007bb57602096620009629462000969575b5082865260a43562002278565b5062000703565b620009749062001cc6565b8762000955565b600254620009899162001d6c565b62000860565b90506020813d602011620009be575b81620009ad6020938362001cf7565b810103126200024e57518462000817565b3d91506200099e565b91620005ef565b620009da341562002031565b6200057d565b346200024e5760203660031901126200024e57620009fd62001b60565b5f546001600160a01b03919062000a18908316331462001d88565b16801562000a5857600880546001600160a01b031916821790557f7ca37f4c119003dd7d79ead20a0741939bcefc0f3246cac2d5552e69595397925f80a2005b60405162461bcd60e51b815260206004820152601960248201527f496e76616c6964204149417262697465722061646472657373000000000000006044820152606490fd5b346200024e575f3660031901126200024e576020600254604051908152f35b346200024e575f3660031901126200024e575f546040516001600160a01b039091168152602090f35b6101003660031901126200024e5762000afd62001b60565b62000b0762001b77565b6001600160401b03604435116200024e573660236044350112156200024e57604435600401359062000b398262001d19565b9062000b49604051928362001cf7565b8282526020820180933660248260051b6044350101116200024e57602460443501915b60248260051b60443501018310620013a557505050606435906001600160401b0382116200024e57366023830112156200024e5781600401359162000bb18362001d19565b9262000bc1604051948562001cf7565b8084526024602085019160051b830101913683116200024e57602401905b828210620013945750505060ff60843516608435036200024e5760a435151560a435036200024e5760c4356001600160a01b03811690036200024e5760e4356001600160a01b03811690036200024e5762000c43600260ff60843516111562001fef565b60c4356001600160a01b0316620013825762000c613415156200207d565b62000c6b62001dc1565b600160208201523360408201526001600160a01b03868116606083015260843560ff1660e083015260a43515801561010084015260e43582166101408401524261012084015260c4359091166101608301529091906200137b57506008546001600160a01b0316945b62000cea6001600160a01b0387161515620020ba565b6001600160a01b03861660808301525f93845b845186101562000d2b5762000d2260019162000d1a888862001e1b565b519062001d6c565b95019462000cfd565b879491878215620013495760a0860183905260c4356001600160a01b03166200101a5762000d5c60a4353462002391565b94909784891062000fc95762000d8b62000d8262000d7b878c62001d7a565b8862001d6c565b60035462001d6c565b6003558560c089015260405193846113278101106001600160401b0361132787011117620007c6579184929391936113276200259a85393361132785019081526001600160a01b038a8116602083015290951660408601525f6060860181905260c06080870181905291519186018290529294600582901b810160e0908101949291015b81831062000f615750505062000e379293506113278401820360a06113278601015262001b8e565b03905ff08015620007bb576001600160a01b031691823b156200024e5760405163ca1d209d60e01b815260048101839052915f8360248184885af1908115620007bb5760209762000eb89562000ea29562000e9b9462000f4f575b50885262001d7a565b9062001d6c565b83516001600160a01b0316903460e43562002278565b505b62000ec58262002416565b815160808084015160a08581015160c080880151604080516001600160a01b039687168152602081019490945283015260ff60843516606083015260a43515159482019490945260c435831691810191909152938116933393909116917f9898cfba013c198ad271542ab57325cea5987f548d1125638adc885a925ecab891908190810162000793565b62000f5a9062001cc6565b8a62000e92565b91939092945060df196113278801820301825285518051908183525f5b82811062000fb357505060208083835f838096600198010152601f801991011601019701920193019094929186949262000e0f565b8060208092840101518282870101520162000f7e565b60405162461bcd60e51b8152602060048201526024808201527f6d73672e76616c756520746f6f206c6f7720666f7220616d6f756e7473202b206044820152636665657360e01b6064820152608490fd5b604051636eb1769f60e11b81523360048201523060248201529296936020846044816001600160a01b0360c435165afa938415620007bb575f946200130f575b5062001068841515620020f9565b6200108184303360c4356001600160a01b031662002188565b6127106200109961ffff60015460a01c168662001d43565b049460a435620012f8575b620010b18686116200213b565b88620010be878762001d7a565b10620012a857620010e362000d8262000d7b8b620010dd8a8a62001d7a565b62001d7a565b6003558560c089015260405193846113278101106001600160401b0361132787011117620007c6579184929391936113276200259a85393361132785019081526001600160a01b038a81166020830152958616604082015260c435909516606086015260c0608086018190529051908501819052919360e0600584901b82018101935f929091015b8183106200124057505050620011939293506113278401820360a06113278601015262001b8e565b03905ff08015620007bb576001600160a01b039081169290620011be908790859060c4351662002215565b823b156200024e5760405163ca1d209d60e01b815260048101879052905f8260248183885af18015620007bb576020976200122795620012129462000e9b936200122e575b508852620010dd838662001d7a565b84516001600160a01b03169160e43562002278565b5062000eba565b620012399062001cc6565b8a62001203565b91939092945060df196113278801820301825285518051908183525f5b8281106200129257505060208083835f838096600198010152601f80199101160101970192019301909492918694926200116b565b806020809284010151828287010152016200125d565b60405162461bcd60e51b815260206004820152602260248201527f496e73756666696369656e7420616d6f756e7420666f72206d696c6573746f6e604482015261657360f01b6064820152608490fd5b9462001308906002549062001d6c565b94620010a4565b9093506020813d60201162001340575b816200132e6020938362001cf7565b810103126200024e575192886200105a565b3d91506200131f565b60405162461bcd60e51b815260206004820152600a6024820152694e6f20616d6f756e747360b01b6044820152606490fd5b9462000cd4565b6200138e341562002031565b62000c61565b813581526020918201910162000bdf565b82356001600160401b0381116200024e5736604382604435010112156200024e576001600160401b0360248260443501013511620007c65760405190620013ff604435820160240135601f01601f19166020018362001cf7565b60246044803583019182013580855236920101116200024e576024926020925f848685818397604435010135604482813501018487013760443501013583010152815201930192905062000b6c565b346200024e575f3660031901126200024e577f9b779b17422d0df92223018b32b4d1fa46e071723d6817e2486d003becc55f006002815414620015245760028155335f52600560205260405f20548015620014f1575f8080809333825260056020528160408120556040518181527f6cd4d40588b17656762e007b5b0c873a86cc13d23123cd1c44b4389b8aafa10560203392a23382f115620007bb5760019055005b60405162461bcd60e51b815260206004820152600b60248201526a4e6f206561726e696e677360a81b6044820152606490fd5b604051633ee5aeb560e01b8152600490fd5b346200024e576020806003193601126200024e576001600160a01b036200155c62001b60565b165f52600a815260405f20906040518083838295549384815201905f52835f20925f5b85828210620015b357505050620015999250038362001cf7565b620015af60405192828493845283019062001b8e565b0390f35b85548452600195860195889550930192016200157f565b346200024e5760403660031901126200024e57620015e762001b60565b6001600160a01b03165f908152600b60205260409020805460243591908210156200024e576020916200161a9162001cb0565b90546040519160031b1c8152f35b346200024e575f3660031901126200024e576020600954604051908152f35b346200024e575f3660031901126200024e576001546040516001600160a01b039091168152602090f35b346200024e575f3660031901126200024e576020600354604051908152f35b62001bc3565b346200024e5760203660031901126200024e576001600160a01b03620016bb62001b60565b165f526007602052602060405f2054604051908152f35b346200024e575f3660031901126200024e576008546040516001600160a01b039091168152602090f35b346200024e5760403660031901126200024e576200171f60243560043562001e30565b604051602091828201838352815180915283604084019201935f5b828110620017485784840385f35b909192826101806001928851848060a01b0380825116835262001772858301518685019062001b3e565b80604083015116604084015260608181840151169084015260808181840151169084015260a0808301519084015260c0808301519084015260ff60e08301511660e084015261010080830151151590840152610120808301519084015261014081818401511690840152610160809201511690820152019601910194929190946200173a565b346200024e575f3660031901126200024e57602061ffff60045416604051908152f35b346200024e575f3660031901126200024e575f546001600160a01b039062001847908216331462001d88565b60035490811562001895575f80809381938260035560015416807fc0819c13be868895eb93e40eaceb96de976442fa1d404e5c55f14bb65a8c489a6020604051858152a282f115620007bb57005b60405162461bcd60e51b81526020600482015260136024820152724e6f7468696e6720746f20776974686472617760681b6044820152606490fd5b346200024e5760403660031901126200024e57620018ed62001b60565b6001600160a01b03165f908152600a60205260409020805460243591908210156200024e576020916200161a9162001cb0565b346200024e575f3660031901126200024e57602061ffff60015460a01c16604051908152f35b346200024e576020806003193601126200024e576001600160a01b036200196c62001b60565b165f52600b815260405f20906040518083838295549384815201905f52835f20925f5b85828210620019a957505050620015999250038362001cf7565b85548452600195860195889550930192016200198f565b346200024e5760203660031901126200024e576001600160a01b03620019e562001b60565b165f526006602052606060405f2054600760205260405f2054600560205260405f20549060405192835260208301526040820152f35b346200024e5760203660031901126200024e576004356009548110156200024e5762001a4a6101809162001af0565b50805460018060a01b03918260018201541660ff8460028401541685600385015416600485015460058601549160068701549360078801549662001aaf8b60098160088d0154169b0154169a8860206040519e8f9084168152019160a01c1662001b3e565b60408b015260608a0152608089015260a088015260c087015281811660e087015260081c161515610100850152610120840152610140830152610160820152f35b60095481101562001b2a57600a9060095f52027f6e1540171b6c0c960b71a7020d9f60077f6af931a8bbf590da0223dacf75c7af01905f90565b634e487b7160e01b5f52603260045260245ffd5b90600282101562001b4c5752565b634e487b7160e01b5f52602160045260245ffd5b600435906001600160a01b03821682036200024e57565b602435906001600160a01b03821682036200024e57565b9081518082526020808093019301915f5b82811062001bae575050505090565b83518552938101939281019260010162001b9f565b346200024e5760403660031901126200024e5760043560243580151581036200024e571562001ca857600254905b61271080820290828204148215171562001c945761ffff8060015460a01c16915f198262001c1f8562001d57565b160182811162001c945762001c43918362001c3c92169062001d6c565b9262001d57565b1690811562001c805760409362001c658462001c739462001c6b940462001d7a565b62001d6c565b809262001d6c565b9082519182526020820152f35b634e487b7160e01b5f52601260045260245ffd5b634e487b7160e01b5f52601160045260245ffd5b5f9062001bf1565b805482101562001b2a575f5260205f2001905f90565b6001600160401b038111620007c657604052565b61018081019081106001600160401b03821117620007c657604052565b90601f801991011681019081106001600160401b03821117620007c657604052565b6001600160401b038111620007c65760051b60200190565b6004359061ffff821682036200024e57565b8181029291811591840414171562001c9457565b9061ffff8092166127100391821162001c9457565b9190820180921162001c9457565b9190820391821162001c9457565b1562001d9057565b60405162461bcd60e51b81526020600482015260096024820152682737ba1037bbb732b960b91b6044820152606490fd5b6040519062001dd08262001cda565b5f610160838281528260208201528260408201528260608201528260808201528260a08201528260c08201528260e08201528261010082015282610120820152826101408201520152565b805182101562001b2a5760209160051b010190565b90600990600954908184101562001fc8578162001e4e828662001d6c565b111562001fb557505b62001e63838262001d7a565b9162001e6f8362001d19565b9360409362001e82604051968762001cf7565b80865262001e93601f199162001d19565b015f5b81811062001f9b575050805b83811062001eb257505050505090565b62001ebd8162001af0565b509062001ecb838262001d7a565b86519062001ed98262001cda565b83546001600160a01b03808216845260ff9560a09492851c87169060028083101562001b4c5760019862001f9397858f9381948f9760208b0152828e88015416908a0152850154166060880152826003850154166080880152600484015490870152600583015460c087015260068301549080821660e0880152600891821c16151561010087015260078301546101208701528201541661014085015201541661016082015262001f8b828b62001e1b565b528862001e1b565b500162001ea2565b60209062001fa862001dc1565b82828a0101520162001e96565b62001fc291508362001d6c565b62001e57565b50505050604051602081018181106001600160401b03821117620007c6576040525f815290565b1562001ff757565b60405162461bcd60e51b815260206004820152601260248201527124b73b30b634b2103a393ab9ba103a34b2b960711b6044820152606490fd5b156200203957565b606460405162461bcd60e51b815260206004820152602060248201527f446f206e6f742073656e642045544820666f7220746f6b656e20657363726f776044820152fd5b156200208557565b60405162461bcd60e51b815260206004820152600d60248201526c09aeae6e840e6cadcc8408aa89609b1b6044820152606490fd5b15620020c257565b60405162461bcd60e51b815260206004820152600f60248201526e105c989a5d195c881b9bdd081cd95d608a1b6044820152606490fd5b156200210157565b60405162461bcd60e51b81526020600482015260126024820152714e6f20746f6b656e20616c6c6f77616e636560701b6044820152606490fd5b156200214357565b60405162461bcd60e51b815260206004820152601c60248201527f416d6f756e7420746f6f206c6f7720746f20636f7665722066656573000000006044820152606490fd5b6040516323b872dd60e01b5f9081526001600160a01b03938416600452938316602452604494909452909160209060648180855af160015f5114811615620021f4575b836040525f60605215620021de57505050565b635274afe760e01b835216600482015260249150fd5b60018115166200220c57813b15153d151616620021cb565b833d5f823e3d90fd5b60405163a9059cbb60e01b5f9081526001600160a01b039384166004526024949094529260209060448180855af160015f511481161562002260575b8360405215620021de57505050565b60018115166200220c57813b15153d15161662002251565b919392916001600160a01b03908116918215801562002387575b6200237e57620022c46127109182620022b761ffff928360015460a01c169062001d43565b0490600454169062001d43565b0494851590811562002373575b506200236b57620022e58560035462001d7a565b600355815f52600560205260405f206200230186825462001d6c565b9055815f52600760205260405f206200231c86825462001d6c565b9055815f52600660205260405f208054916001830180931162001c94577f3349e92a2f467dc55d843be6cc7f9d9a751b4cd966f0c4f6a614cf319c4d124c9260209255604051948786521693a3565b505f93505050565b905085115f620022d1565b505f9450505050565b5033831462002292565b90620023c5620023d491612710620023b361ffff60015460a01c168662001d43565b049015620023d7576002549062001d6c565b82620010dd828095116200213b565b91565b5f9062001d6c565b8054600160401b811015620007c657620023ff9160018201815562001cb0565b819291549060031b91821b915f19901b1916179055565b600954600160401b811015620007c6576001810191826009556200243a8262001af0565b620025865760018060a01b039283835116918054906bffffffffffffffffffffffff60a01b84818416178255602086015192600284101562001b4c578895889460ff60a01b9060a01b16916affffffffffffffffffffff60a81b16171782556001820190836040880151169182828254161790556009600284019360608901948686511684825416179055600381018660808b0151168482541617905560a0890151600482015560c089015160058201556006810160ff60e08b01511681549061ff006101008d0151151560081b169161ffff191617179055610120890151600782015560088101866101408b0151168482541617905501908461016089015116908254161790555f52600a602052620025588360405f20620023df565b51165f52600b602052620025708160405f20620023df565b1162001c945751165f52600c60205260405f2055565b634e487b7160e01b5f525f60045260245ffdfe610100604052346200062c5762001327803803806200001e81620006c4565b92833981019060c0818303126200062c576200003a81620006ea565b6200004860208301620006ea565b6200005660408401620006ea565b906200006560608501620006ea565b60808501519093906001600160401b0381116200062c5785019486601f870112156200062c578551620000a26200009c82620006ff565b620006c4565b9660208089848152019260051b820101908982116200062c5760208101925b82841062000630575050505060a0810151906001600160401b0382116200062c57019580601f880112156200062c578651620001016200009c82620006ff565b976020808a848152019260051b8201019283116200062c57602001905b8282106200061b57505060017f9b779b17422d0df92223018b32b4d1fa46e071723d6817e2486d003becc55f0055506001600160a01b0381811615620005e257808316156200059d57831615620005665784518651036200052f57845115620004fa5760805260a05260c05260e0525f805b82518210156200048c57620001a6828562000717565b51156200044757620001b9828462000717565b51620001c6838662000717565b5160405191606083016001600160401b038111848210176200041f57604052825260208201525f60408201525f54680100000000000000008110156200041f5760018101805f5581101562000433575f8052815180517f290decd9548b62a8d60345a988386fc84ba6bc95484008f6362f93160ef3e56392916001600160401b0382116200041f5760038302840154600181811c9116801562000414575b60208210146200040057601f8111620003b1575b50602090601f831160011462000336579282604095936003936002965f926200032a575b50508160011b915f1990851b1c1916178282028401555b60208601516001838302850101550201019101519060049182811015620003175760ff80198354169116179055620002ec838662000717565b51820180921162000304575060019091019062000190565b601190634e487b7160e01b5f525260245ffd5b602183634e487b7160e01b5f525260245ffd5b015190505f806200029c565b906003840285015f5260205f20915f5b601f1985168110620003985750836003936002969360019360409997601f1981161062000380575b505050811b01828202840155620002b3565b01515f1983871b60f8161c191690555f80806200036e565b9192602060018192868501518155019401920162000346565b6003840285015f5260205f20601f840160051c81019160208510620003f5575b601f0160051c01905b818110620003e9575062000278565b5f8155600101620003da565b9091508190620003d1565b634e487b7160e01b5f52602260045260245ffd5b90607f169062000264565b634e487b7160e01b5f52604160045260245ffd5b634e487b7160e01b5f52603260045260245ffd5b60405162461bcd60e51b815260206004820152601c60248201527f4d696c6573746f6e6520616d6f756e74206d757374206265203e2030000000006044820152606490fd5b600155604051610bfa90816200072d82396080518181816102ff015281816105ea015281816106d40152610859015260a0518181816107d80152610810015260c05181818160e4015281816106330152610738015260e051818181610127015281816103bc0152610afe0152f35b60405162461bcd60e51b815260206004820152600d60248201526c4e6f206d696c6573746f6e657360981b6044820152606490fd5b60405162461bcd60e51b815260206004820152600f60248201526e098cadccee8d040dad2e6dac2e8c6d608b1b6044820152606490fd5b60405162461bcd60e51b815260206004820152600f60248201526e24b73b30b634b21030b93134ba32b960891b6044820152606490fd5b60405162461bcd60e51b815260206004820152601360248201527f496e76616c69642062656e6566696369617279000000000000000000000000006044820152606490fd5b60405162461bcd60e51b815260206004820152601160248201527024b73b30b634b2103232b837b9b4ba37b960791b6044820152606490fd5b81518152602091820191016200011e565b5f80fd5b83516001600160401b0381116200062c5782018b603f820112156200062c5760208101516001600160401b0381116200041f5762000678601f8201601f1916602001620006c4565b918183528d604083830101116200062c575f5b828110620006ad57505091815f602080958195010152815201930192620000c1565b80604060209284010151828287010152016200068b565b6040519190601f01601f191682016001600160401b038111838210176200041f57604052565b51906001600160a01b03821682036200062c57565b6001600160401b0381116200041f5760051b60200190565b8051821015620004335760209160051b01019056fe6080604090808252600480361015610015575f80fd5b5f3560e01c9182630681ca55146108f457508163317debf51461083f57816338af3eed146107fc5781633f4e7c0b1461071e5781634c909aa914610619578163c7c4ff46146105d6578163ca1d209d14610394578163d82d7d80146102e5578163e89e4ed61461017957508063f3a504f214610156578063fc0c546a14610113578063fe25e00a146100d05763ff50abdc146100af575f80fd5b346100cc575f3660031901126100cc576020906001549051908152f35b5f80fd5b50346100cc575f3660031901126100cc57517f00000000000000000000000000000000000000000000000000000000000000006001600160a01b03168152602090f35b50346100cc575f3660031901126100cc57517f00000000000000000000000000000000000000000000000000000000000000006001600160a01b03168152602090f35b50346100cc575f3660031901126100cc5760209060ff6002541690519015158152f35b9050346100cc57602091826003193601126100cc5781355f548110156100cc576101a29061090d565b50908051925f835460018160011c916001811680156102db575b89841081146102c8579183918a95938a95865290815f146102a7575060011461026a575b50506101ee92500385610958565b60ff60026001850154940154169282519560608752855195866060890152815f5b888110610255575050505f60808789010152860152808310156102425750830152601f01601f1916810181900360800190f35b602190634e487b7160e01b5f525260245ffd5b8181840101516080828c01015201829061020f565b5f88815285812095935091905b81831061028f5750899450508201016101ee5f6101e0565b85548a84018501529485019489945091830191610277565b9150506101ee94925060ff191682840152151560051b82010187925f6101e0565b602286634e487b7160e01b5f525260245ffd5b92607f16926101bc565b346100cc5760203660031901126100cc5780359061032d337f00000000000000000000000000000000000000000000000000000000000000006001600160a01b03161461098e565b61033b60ff600254166109ca565b60026103468361090d565b50019081549060ff8216908082101561024257509061036760029215610a03565b60ff19161790557ffddf026dc0fe8019554601c148f631302e8f8fe8d383e71165001e38f0830b615f80a2005b602083366003190182136100cc578235906002549360ff85166105a4576001548303610570577f00000000000000000000000000000000000000000000000000000000000000006001600160a01b03168061045d5750823403610426575060017fc4c14883ae9fd8e26d5d59e3485ed29fd126d781d7e498a4ca5c54c8268e4936945b60ff19161760025551908152a1005b83606492519162461bcd60e51b8352820152601360248201527208aa89040c2dadeeadce840dad2e6dac2e8c6d606b1b6044820152fd5b3461052f57846024918451928380926370a0823160e01b825230878301525afa908115610525579084915f916104f4575b50106104be575060017fc4c14883ae9fd8e26d5d59e3485ed29fd126d781d7e498a4ca5c54c8268e493694610417565b83606492519162461bcd60e51b83528201526012602482015271151bdad95b881b9bdd081c9958d95a5d995960721b6044820152fd5b809250868092503d831161051e575b61050d8183610958565b810103126100cc578390518761048e565b503d610503565b83513d5f823e3d90fd5b508380606493519262461bcd60e51b845283015260248201527f446f206e6f742073656e642045544820666f7220746f6b656e20657363726f776044820152fd5b83606492519162461bcd60e51b8352820152601060248201526f125b98dbdc9c9958dd08185b5bdd5b9d60821b6044820152fd5b83606492519162461bcd60e51b8352820152600e60248201526d105b1c9958591e48199d5b99195960921b6044820152fd5b82346100cc575f3660031901126100cc57517f00000000000000000000000000000000000000000000000000000000000000006001600160a01b03168152602090f35b82346100cc5760203660031901126100cc578135610661337f00000000000000000000000000000000000000000000000000000000000000006001600160a01b031614610a3d565b610669610ab2565b6106728161090d565b5092600284019081549060ff8216908082101561024257506106f8957f9b0ea444e9e2f5329d302a1a5cc179077359d71dfc083cfcf88360adfa01b3099360036020946106c3600260019614610a77565b60ff191617905501549351848152a27f0000000000000000000000000000000000000000000000000000000000000000610af4565b60017f9b779b17422d0df92223018b32b4d1fa46e071723d6817e2486d003becc55f0055005b82346100cc5760203660031901126100cc578135610766337f00000000000000000000000000000000000000000000000000000000000000006001600160a01b031614610a3d565b61076e610ab2565b6107778161090d565b5092600284019081549060ff8216908082101561024257506106f8957f9e069181c12760c2cd0078ed4facdbe1f3614543b0fbff5dbcac3cbc61a0b64e9360016020946107c76002839614610a77565b60ff191617905501549351848152a27f0000000000000000000000000000000000000000000000000000000000000000610af4565b82346100cc575f3660031901126100cc57517f00000000000000000000000000000000000000000000000000000000000000006001600160a01b03168152602090f35b82346100cc5760203660031901126100cc578135610887337f00000000000000000000000000000000000000000000000000000000000000006001600160a01b03161461098e565b61088f610ab2565b61089d60ff600254166109ca565b6108a68161090d565b5092600284019081549060ff8216908082101561024257506106f8957f9e069181c12760c2cd0078ed4facdbe1f3614543b0fbff5dbcac3cbc61a0b64e9360016020946107c7829515610a03565b346100cc575f3660031901126100cc576020905f548152f35b5f54811015610944576003905f8052027f290decd9548b62a8d60345a988386fc84ba6bc95484008f6362f93160ef3e56301905f90565b634e487b7160e01b5f52603260045260245ffd5b90601f8019910116810190811067ffffffffffffffff82111761097a57604052565b634e487b7160e01b5f52604160045260245ffd5b1561099557565b60405162461bcd60e51b815260206004820152600d60248201526c2737ba103232b837b9b4ba37b960991b6044820152606490fd5b156109d157565b60405162461bcd60e51b815260206004820152600a602482015269139bdd08199d5b99195960b21b6044820152606490fd5b15610a0a57565b60405162461bcd60e51b815260206004820152600b60248201526a4e6f742070656e64696e6760a81b6044820152606490fd5b15610a4457565b60405162461bcd60e51b815260206004820152600b60248201526a2737ba1030b93134ba32b960a91b6044820152606490fd5b15610a7e57565b60405162461bcd60e51b815260206004820152600c60248201526b139bdd08191a5cdc1d5d195960a21b6044820152606490fd5b7f9b779b17422d0df92223018b32b4d1fa46e071723d6817e2486d003becc55f006002815414610ae25760029055565b604051633ee5aeb560e01b8152600490fd5b6001600160a01b037f0000000000000000000000000000000000000000000000000000000000000000811680610b5457505f80938193829383918315610b4a575b1690f115610b3f57565b6040513d5f823e3d90fd5b6108fc9250610b35565b9192906040519363a9059cbb60e01b5f521660045260245260205f60448180855af160015f5114811615610ba5575b8260405215610b90575050565b635274afe760e01b8252600482015260249150fd5b6001811516610bbb57813b15153d151616610b83565b823d5f823e3d90fdfea2646970667358221220c60ac899bd29faae2cd2f0882c5f9bda50a2ffbe5254432aef3735c978c53dd964736f6c63430008180033610100346101e357601f610b5538819003918201601f191683019291906001600160401b038411838510176101e75781608092849260409687528339810103126101e35761004c816101fb565b90610059602082016101fb565b61007060606100698685016101fb565b93016101fb565b60017f9b779b17422d0df92223018b32b4d1fa46e071723d6817e2486d003becc55f0055926001600160a01b03808216156101ab5780831615610167578316156101315760805260a05260c05260e05260ff19600154166001555161094590816102108239608051818181610135015281816101d9015281816104d80152610675015260a0518181816105cc0152610764015260c05181818160a90152818161056e015261061a015260e05181818160f00152818161027a01526108490152f35b845162461bcd60e51b815260206004820152600f60248201526e24b73b30b634b21030b93134ba32b960891b6044820152606490fd5b855162461bcd60e51b815260206004820152601360248201527f496e76616c69642062656e6566696369617279000000000000000000000000006044820152606490fd5b855162461bcd60e51b815260206004820152601160248201527024b73b30b634b2103232b837b9b4ba37b960791b6044820152606490fd5b5f80fd5b634e487b7160e01b5f52604160045260245ffd5b51906001600160a01b03821682036101e35756fe604060808152600480361015610013575f80fd5b5f3560e01c908163318b82e2146105fb57816338af3eed146105b85781637e07fd341461055857816386d1a69f146104c2578163aa8c217c146104a5578163b6b55f2514610246578163c19d93fb14610208578163c7c4ff46146101c5578163f240f7c31461011f57508063fc0c546a146100dc5763fe25e00a14610096575f80fd5b346100d8575f3660031901126100d857517f00000000000000000000000000000000000000000000000000000000000000006001600160a01b03168152602090f35b5f80fd5b50346100d8575f3660031901126100d857517f00000000000000000000000000000000000000000000000000000000000000006001600160a01b03168152602090f35b346100d8575f3660031901126100d857610163337f00000000000000000000000000000000000000000000000000000000000000006001600160a01b0316146107c1565b60015460ff81169160058310156101b25750610183600160039314610716565b60ff191617600155337f695fbf2fe28b4fde5705122279ffc4160ebfc0f45e4d96f7e6699001be5062ef5f80a2005b602190634e487b7160e01b5f525260245ffd5b82346100d8575f3660031901126100d857517f00000000000000000000000000000000000000000000000000000000000000006001600160a01b03168152602090f35b82346100d8575f3660031901126100d85760ff60015416905190600581101561023357602092508152f35b602183634e487b7160e01b5f525260245ffd5b826020806003193601126100d8578235916001549360ff85166005811015610492576102729015610716565b831561045e577f00000000000000000000000000000000000000000000000000000000000000006001600160a01b03168061032157508334036102ea575060017f2da466a7b24304f47e87fa2e1e5a81b9831ce54fec19055ce277ca2f39ba42c493945b855f5560ff191617600155519283523392a2005b82606492519162461bcd60e51b8352820152601360248201527208aa89040c2dadeeadce840dad2e6dac2e8c6d606b1b6044820152fd5b3461041d57836024918451928380926370a0823160e01b825230878301525afa908115610413579085915f916103b9575b5010610383575060017f2da466a7b24304f47e87fa2e1e5a81b9831ce54fec19055ce277ca2f39ba42c493946102d6565b82606492519162461bcd60e51b83528201526012602482015271151bdad95b881b9bdd081c9958d95a5d995960721b6044820152fd5b915050833d851161040c575b601f8101601f1916820167ffffffffffffffff8111838210176103f957859183918652810103126100d85784905187610352565b604184634e487b7160e01b5f525260245ffd5b503d6103c5565b83513d5f823e3d90fd5b508280606493519262461bcd60e51b845283015260248201527f446f206e6f742073656e642045544820666f7220746f6b656e20657363726f776044820152fd5b82606492519162461bcd60e51b8352820152601060248201526f04d757374206465706f736974203e20360841b6044820152fd5b602182634e487b7160e01b5f525260245ffd5b82346100d8575f3660031901126100d8576020905f549051908152f35b346100d8575f3660031901126100d857610506337f00000000000000000000000000000000000000000000000000000000000000006001600160a01b0316146107c1565b60ff600154169060058210156101b25761052260018314610716565b61052a6107fd565b610532610752565b60017f9b779b17422d0df92223018b32b4d1fa46e071723d6817e2486d003becc55f0055005b346100d8575f3660031901126100d85761059c337f00000000000000000000000000000000000000000000000000000000000000006001600160a01b0316146106dc565b60ff600154169060058210156101b25761052260038314610716565b82346100d8575f3660031901126100d857517f00000000000000000000000000000000000000000000000000000000000000006001600160a01b03168152602090f35b82346100d8575f3660031901126100d8576001600160a01b03610641337f00000000000000000000000000000000000000000000000000000000000000008316146106dc565b60ff6001541660058110156106c9579261066060036105329514610716565b6106686107fd565b60ff1960015416176001557f0000000000000000000000000000000000000000000000000000000000000000907fd7dee2702d63ad89917b6a4da9981c90c4d24f8c2bdfd64c604ecae57d8d065160205f54945192858452841692a261083f565b602184634e487b7160e01b5f525260245ffd5b156106e357565b60405162461bcd60e51b815260206004820152600b60248201526a2737ba1030b93134ba32b960a91b6044820152606490fd5b1561071d57565b60405162461bcd60e51b815260206004820152600d60248201526c496e76616c696420737461746560981b6044820152606490fd5b600260ff1960015416176001556107bf7f00000000000000000000000000000000000000000000000000000000000000005f54906040518281527fb21fb52d5749b80f3182f8c6992236b5e5576681880914484d7f4c9b062e619e602060018060a01b03841692a261083f565b565b156107c857565b60405162461bcd60e51b815260206004820152600d60248201526c2737ba103232b837b9b4ba37b960991b6044820152606490fd5b7f9b779b17422d0df92223018b32b4d1fa46e071723d6817e2486d003becc55f00600281541461082d5760029055565b604051633ee5aeb560e01b8152600490fd5b6001600160a01b037f000000000000000000000000000000000000000000000000000000000000000081168061089f57505f80938193829383918315610895575b1690f11561088a57565b6040513d5f823e3d90fd5b6108fc9250610880565b9192906040519363a9059cbb60e01b5f521660045260245260205f60448180855af160015f51148116156108f0575b82604052156108db575050565b635274afe760e01b8252600482015260249150fd5b600181151661090657813b15153d1516166108ce565b823d5f823e3d90fdfea26469706673582212208ea94d22853104104b1ec5dcbaef474d626ea72b70d27c031723e4041afc293e64736f6c63430008180033a264697066735822122040af4e9193465aa2def441f07912f3e2e3b37158aa4a90ef86bfcc22498e8aee64736f6c63430008180033",
  "linkReferences": {},
  "deployedLinkReferences": {},
  "immutableReferences": {},
  "inputSourceName": "project/contracts/EscrowFactory.sol",
  "buildInfoId": "solc-0_8_24-4a4225a40358cf888f00ae64ce53b2b8f766b6a3"
}