{
  "_format": "hh3-artifact-1",
  "contractName": "MilestoneEscrow",
  "sourceName": "contracts/MilestoneEscrow.sol",
  "abi": [
    {
      "inputs": [
        {
          "internalType": "address",
          "name": "_depositor",
          "type": "address"
        },
        {
          "internalType": "address",
          "name": "_beneficiary",
          "type": "address"
        },
        {
          "internalType": "address",
          "name": "_arbiter",
          "type": "address"
        },
        {
          "internalType": "address",
          "name": "_token",
          "type": "address"
        },
        {
          "internalType": "string[]",
          "name": "_descriptions",
          "type": "string[]"
        },
        {
          "internalType": "uint256[]",
          "name": "_amounts",
          "type": "uint256[]"
        }
      ],
      "stateMutability": "nonpayable",
      "type": "constructor"
    },
    {
      "inputs": [],
      "name": "ReentrancyGuardReentrantCall",
      "type": "error"
    },
    {
      "inputs": [
        {
          "internalType": "address",
          "name": "token",
          "type": "address"
        }
      ],
      "name": "SafeERC20FailedOperation",
      "type": "error"
    },
    {
      "anonymous": false,
      "inputs": [
        {
          "indexed": false,
          "internalType": "uint256",
          "name": "total",
          "type": "uint256"
        }
      ],
      "name": "Funded",
      "type": "event"
    },
    {
      "anonymous": false,
      "inputs": [
        {
          "indexed": true,
          "internalType": "uint256",
          "name": "index",
          "type": "uint256"
        }
      ],
      "name": "MilestoneDisputed",
      "type": "event"
    },
    {
      "anonymous": false,
      "inputs": [
        {
          "indexed": true,
          "internalType": "uint256",
          "name": "index",
          "type": "uint256"
        },
        {
          "indexed": false,
          "internalType": "uint256",
          "name": "amount",
          "type": "uint256"
        }
      ],
      "name": "MilestoneRefunded",
      "type": "event"
    },
    {
      "anonymous": false,
      "inputs": [
        {
          "indexed": true,
          "internalType": "uint256",
          "name": "index",
          "type": "uint256"
        },
        {
          "indexed": false,
          "internalType": "uint256",
          "name": "amount",
          "type": "uint256"
        }
      ],
      "name": "MilestoneReleased",
      "type": "event"
    },
    {
      "inputs": [],
      "name": "arbiter",
      "outputs": [
        {
          "internalType": "address",
          "name": "",
          "type": "address"
        }
      ],
      "stateMutability": "view",
      "type": "function"
    },
    {
      "inputs": [],
      "name": "beneficiary",
      "outputs": [
        {
          "internalType": "address",
          "name": "",
          "type": "address"
        }
      ],
      "stateMutability": "view",
      "type": "function"
    },
    {
      "inputs": [],
      "name": "depositor",
      "outputs": [
        {
          "internalType": "address",
          "name": "",
          "type": "address"
        }
      ],
      "stateMutability": "view",
      "type": "function"
    },
    {
      "inputs": [
        {
          "internalType": "uint256",
          "name": "index",
          "type": "uint256"
        }
      ],
      "name": "disputeMilestone",
      "outputs": [],
      "stateMutability": "nonpayable",
      "type": "function"
    },
    {
      "inputs": [
        {
          "internalType": "uint256",
          "name": "_amount",
          "type": "uint256"
        }
      ],
      "name": "fund",
      "outputs": [],
      "stateMutability": "payable",
      "type": "function"
    },
    {
      "inputs": [],
      "name": "funded",
      "outputs": [
        {
          "internalType": "bool",
          "name": "",
          "type": "bool"
        }
      ],
      "stateMutability": "view",
      "type": "function"
    },
    {
      "inputs": [],
      "name": "milestoneCount",
      "outputs": [
        {
          "internalType": "uint256",
          "name": "",
          "type": "uint256"
        }
      ],
      "stateMutability": "view",
      "type": "function"
    },
    {
      "inputs": [
        {
          "internalType": "uint256",
          "name": "",
          "type": "uint256"
        }
      ],
      "name": "milestones",
      "outputs": [
        {
          "internalType": "string",
          "name": "description",
          "type": "string"
        },
        {
          "internalType": "uint256",
          "name": "amount",
          "type": "uint256"
        },
        {
          "internalType": "enum MilestoneEscrow.MilestoneState",
          "name": "state",
          "type": "uint8"
        }
      ],
      "stateMutability": "view",
      "type": "function"
    },
    {
      "inputs": [
        {
          "internalType": "uint256",
          "name": "index",
          "type": "uint256"
        }
      ],
      "name": "releaseMilestone",
      "outputs": [],
      "stateMutability": "nonpayable",
      "type": "function"
    },
    {
      "inputs": [
        {
          "internalType": "uint256",
          "name": "index",
          "type": "uint256"
        }
      ],
      "name": "resolveRefund",
      "outputs": [],
      "stateMutability": "nonpayable",
      "type": "function"
    },
    {
      "inputs": [
        {
          "internalType": "uint256",
          "name": "index",
          "type": "uint256"
        }
      ],
      "name": "resolveRelease",
      "outputs": [],
      "stateMutability": "nonpayable",
      "type": "function"
    },
    {
      "inputs": [],
      "name": "token",
      "outputs": [
        {
          "internalType": "address",
          "name": "",
          "type": "address"
        }
      ],
      "stateMutability": "view",
      "type": "function"
    },
    {
      "inputs": [],
      "name": "totalDeposited",
      "outputs": [
        {
          "internalType": "uint256",
          "name": "",
          "type": "uint256"
        }
      ],
      "stateMutability": "view",
      "type": "function"
    }
  ],
  "bytecode": "0x610100604052346200062c5762001327803803806200001e81620006c4565b92833981019060c0818303126200062c576200003a81620006ea565b6200004860208301620006ea565b6200005660408401620006ea565b906200006560608501620006ea565b60808501519093906001600160401b0381116200062c5785019486601f870112156200062c578551620000a26200009c82620006ff565b620006c4565b9660208089848152019260051b820101908982116200062c5760208101925b82841062000630575050505060a0810151906001600160401b0382116200062c57019580601f880112156200062c578651620001016200009c82620006ff565b976020808a848152019260051b8201019283116200062c57602001905b8282106200061b57505060017f9b779b17422d0df92223018b32b4d1fa46e071723d6817e2486d003becc55f0055506001600160a01b0381811615620005e257808316156200059d57831615620005665784518651036200052f57845115620004fa5760805260a05260c05260e0525f805b82518210156200048c57620001a6828562000717565b51156200044757620001b9828462000717565b51620001c6838662000717565b5160405191606083016001600160401b038111848210176200041f57604052825260208201525f60408201525f54680100000000000000008110156200041f5760018101805f5581101562000433575f8052815180517f290decd9548b62a8d60345a988386fc84ba6bc95484008f6362f93160ef3e56392916001600160401b0382116200041f5760038302840154600181811c9116801562000414575b60208210146200040057601f8111620003b1575b50602090601f831160011462000336579282604095936003936002965f926200032a575b50508160011b915f1990851b1c1916178282028401555b60208601516001838302850101550201019101519060049182811015620003175760ff80198354169116179055620002ec838662000717565b51820180921162000304575060019091019062000190565b601190634e487b7160e01b5f525260245ffd5b602183634e487b7160e01b5f525260245ffd5b015190505f806200029c565b906003840285015f5260205f20915f5b601f1985168110620003985750836003936002969360019360409997601f1981161062000380575b505050811b01828202840155620002b3565b01515f1983871b60f8161c191690555f80806200036e565b9192602060018192868501518155019401920162000346565b6003840285015f5260205f20601f840160051c81019160208510620003f5575b601f0160051c01905b818110620003e9575062000278565b5f8155600101620003da565b9091508190620003d1565b634e487b7160e01b5f52602260045260245ffd5b90607f169062000264565b634e487b7160e01b5f52604160045260245ffd5b634e487b7160e01b5f52603260045260245ffd5b60405162461bcd60e51b815260206004820152601c60248201527f4d696c6573746f6e6520616d6f756e74206d757374206265203e2030000000006044820152606490fd5b600155604051610bfa90816200072d82396080518181816102ff015281816105ea015281816106d40152610859015260a0518181816107d80152610810015260c05181818160e4015281816106330152610738015260e051818181610127015281816103bc0152610afe0152f35b60405162461bcd60e51b815260206004820152600d60248201526c4e6f206d696c6573746f6e657360981b6044820152606490fd5b60405162461bcd60e51b815260206004820152600f60248201526e098cadccee8d040dad2e6dac2e8c6d608b1b6044820152606490fd5b60405162461bcd60e51b815260206004820152600f60248201526e24b73b30b634b21030b93134ba32b960891b6044820152606490fd5b60405162461bcd60e51b815260206004820152601360248201527f496e76616c69642062656e6566696369617279000000000000000000000000006044820152606490fd5b60405162461bcd60e51b815260206004820152601160248201527024b73b30b634b2103232b837b9b4ba37b960791b6044820152606490fd5b81518152602091820191016200011e565b5f80fd5b83516001600160401b0381116200062c5782018b603f820112156200062c5760208101516001600160401b0381116200041f5762000678601f8201601f1916602001620006c4565b918183528d604083830101116200062c575f5b828110620006ad57505091815f602080958195010152815201930192620000c1565b80604060209284010151828287010152016200068b565b6040519190601f01601f191682016001600160401b038111838210176200041f57604052565b51906001600160a01b03821682036200062c57565b6001600160401b0381116200041f5760051b60200190565b8051821015620004335760209160051b01019056fe6080604090808252600480361015610015575f80fd5b5f3560e01c9182630681ca55146108f457508163317debf51461083f57816338af3eed146107fc5781633f4e7c0b1461071e5781634c909aa914610619578163c7c4ff46146105d6578163ca1d209d14610394578163d82d7d80146102e5578163e89e4ed61461017957508063f3a504f214610156578063fc0c546a14610113578063fe25e00a146100d05763ff50abdc146100af575f80fd5b346100cc575f3660031901126100cc576020906001549051908152f35b5f80fd5b50346100cc575f3660031901126100cc57517f00000000000000000000000000000000000000000000000000000000000000006001600160a01b03168152602090f35b50346100cc575f3660031901126100cc57517f00000000000000000000000000000000000000000000000000000000000000006001600160a01b03168152602090f35b50346100cc575f3660031901126100cc5760209060ff6002541690519015158152f35b9050346100cc57602091826003193601126100cc5781355f548110156100cc576101a29061090d565b50908051925f835460018160011c916001811680156102db575b89841081146102c8579183918a95938a95865290815f146102a7575060011461026a575b50506101ee92500385610958565b60ff60026001850154940154169282519560608752855195866060890152815f5b888110610255575050505f60808789010152860152808310156102425750830152601f01601f1916810181900360800190f35b602190634e487b7160e01b5f525260245ffd5b8181840101516080828c01015201829061020f565b5f88815285812095935091905b81831061028f5750899450508201016101ee5f6101e0565b85548a84018501529485019489945091830191610277565b9150506101ee94925060ff191682840152151560051b82010187925f6101e0565b602286634e487b7160e01b5f525260245ffd5b92607f16926101bc565b346100cc5760203660031901126100cc5780359061032d337f00000000000000000000000000000000000000000000000000000000000000006001600160a01b03161461098e565b61033b60ff600254166109ca565b60026103468361090d565b50019081549060ff8216908082101561024257509061036760029215610a03565b60ff19161790557ffddf026dc0fe8019554601c148f631302e8f8fe8d383e71165001e38f0830b615f80a2005b602083366003190182136100cc578235906002549360ff85166105a4576001548303610570577f00000000000000000000000000000000000000000000000000000000000000006001600160a01b03168061045d5750823403610426575060017fc4c14883ae9fd8e26d5d59e3485ed29fd126d781d7e498a4ca5c54c8268e4936945b60ff19161760025551908152a1005b83606492519162461bcd60e51b8352820152601360248201527208aa89040c2dadeeadce840dad2e6dac2e8c6d606b1b6044820152fd5b3461052f57846024918451928380926370a0823160e01b825230878301525afa908115610525579084915f916104f4575b50106104be575060017fc4c14883ae9fd8e26d5d59e3485ed29fd126d781d7e498a4ca5c54c8268e493694610417565b83606492519162461bcd60e51b83528201526012602482015271151bdad95b881b9bdd081c9958d95a5d995960721b6044820152fd5b809250868092503d831161051e575b61050d8183610958565b810103126100cc578390518761048e565b503d610503565b83513d5f823e3d90fd5b508380606493519262461bcd60e51b845283015260248201527f446f206e6f742073656e642045544820666f7220746f6b656e20657363726f776044820152fd5b83606492519162461bcd60e51b8352820152601060248201526f125b98dbdc9c9958dd08185b5bdd5b9d60821b6044820152fd5b83606492519162461bcd60e51b8352820152600e60248201526d105b1c9958591e48199d5b99195960921b6044820152fd5b82346100cc575f3660031901126100cc57517f00000000000000000000000000000000000000000000000000000000000000006001600160a01b03168152602090f35b82346100cc5760203660031901126100cc578135610661337f00000000000000000000000000000000000000000000000000000000000000006001600160a01b031614610a3d565b610669610ab2565b6106728161090d565b5092600284019081549060ff8216908082101561024257506106f8957f9b0ea444e9e2f5329d302a1a5cc179077359d71dfc083cfcf88360adfa01b3099360036020946106c3600260019614610a77565b60ff191617905501549351848152a27f0000000000000000000000000000000000000000000000000000000000000000610af4565b60017f9b779b17422d0df92223018b32b4d1fa46e071723d6817e2486d003becc55f0055005b82346100cc5760203660031901126100cc578135610766337f00000000000000000000000000000000000000000000000000000000000000006001600160a01b031614610a3d565b61076e610ab2565b6107778161090d565b5092600284019081549060ff8216908082101561024257506106f8957f9e069181c12760c2cd0078ed4facdbe1f3614543b0fbff5dbcac3cbc61a0b64e9360016020946107c76002839614610a77565b60ff191617905501549351848152a27f0000000000000000000000000000000000000000000000000000000000000000610af4565b82346100cc575f3660031901126100cc57517f00000000000000000000000000000000000000000000000000000000000000006001600160a01b03168152602090f35b82346100cc5760203660031901126100cc578135610887337f00000000000000000000000000000000000000000000000000000000000000006001600160a01b03161461098e565b61088f610ab2565b61089d60ff600254166109ca565b6108a68161090d565b5092600284019081549060ff8216908082101561024257506106f8957f9e069181c12760c2cd0078ed4facdbe1f3614543b0fbff5dbcac3cbc61a0b64e9360016020946107c7829515610a03565b346100cc575f3660031901126100cc576020905f548152f35b5f54811015610944576003905f8052027f290decd9548b62a8d60345a988386fc84ba6bc95484008f6362f93160ef3e56301905f90565b634e487b7160e01b5f52603260045260245ffd5b90601f8019910116810190811067ffffffffffffffff82111761097a57604052565b634e487b7160e01b5f52604160045260245ffd5b1561099557565b60405162461bcd60e51b815260206004820152600d60248201526c2737ba103232b837b9b4ba37b960991b6044820152606490fd5b156109d157565b60405162461bcd60e51b815260206004820152600a602482015269139bdd08199d5b99195960b21b6044820152606490fd5b15610a0a57565b60405162461bcd60e51b815260206004820152600b60248201526a4e6f742070656e64696e6760a81b6044820152606490fd5b15610a4457565b60405162461bcd60e51b815260206004820152600b60248201526a2737ba1030b93134ba32b960a91b6044820152606490fd5b15610a7e57565b60405162461bcd60e51b815260206004820152600c60248201526b139bdd08191a5cdc1d5d195960a21b6044820152606490fd5b7f9b779b17422d0df92223018b32b4d1fa46e071723d6817e2486d003becc55f006002815414610ae25760029055565b604051633ee5aeb560e01b8152600490fd5b6001600160a01b037f0000000000000000000000000000000000000000000000000000000000000000811680610b5457505f80938193829383918315610b4a575b1690f115610b3f57565b6040513d5f823e3d90fd5b6108fc9250610b35565b9192906040519363a9059cbb60e01b5f521660045260245260205f60448180855af160015f5114811615610ba5575b8260405215610b90575050565b635274afe760e01b8252600482015260249150fd5b6001811516610bbb57813b15153d151616610b83565b823d5f823e3d90fdfea2646970667358221220c60ac899bd29faae2cd2f0882c5f9bda50a2ffbe5254432aef3735c978c53dd964736f6c63430008180033",
  "linkReferences": {},
  "deployedLinkReferences": {},
  "immutableReferences": {
    "3588": [
      {
        "length": 32,
        "start": 767
      },
      {
        "length": 32,
        "start": 1514
      },
      {
        "length": 32,
        "start": 1748
      },
      {
        "length": 32,
        "start": 2137
      }
    ],
    "3590": [
      {
        "length": 32,
        "start": 2008
      },
      {
        "length": 32,
        "start": 2064
      }
    ],
    "3592": [
      {
        "length": 32,
        "start": 228
      },
      {
        "length": 32,
        "start": 1587
      },
      {
        "length": 32,
        "start": 1848
      }
    ],
    "3595": [
      {
        "length": 32,
        "start": 295
      },
      {
        "length": 32,
        "start": 956
      },
      {
        "length": 32,
        "start": 2814
      }
    ]
  },
  "inputSourceName": "project/contracts/MilestoneEscrow.sol",
  "buildInfoId": "solc-0_8_24-4a4225a40358cf888f00ae64ce53b2b8f766b6a3"
}