{
  "_format": "hh3-artifact-1",
  "contractName": "AIArbiter",
  "sourceName": "contracts/AIArbiter.sol",
  "abi": [
    {
      "inputs": [
        {
          "internalType": "address",
          "name": "_oracleSigner",
          "type": "address"
        }
      ],
      "stateMutability": "nonpayable",
      "type": "constructor"
    },
    {
      "inputs": [],
      "name": "ReentrancyGuardReentrantCall",
      "type": "error"
    },
    {
      "anonymous": false,
      "inputs": [
        {
          "indexed": true,
          "internalType": "address",
          "name": "escrow",
          "type": "address"
        },
        {
          "indexed": false,
          "internalType": "string",
          "name": "resolution",
          "type": "string"
        }
      ],
      "name": "DisputeResolved",
      "type": "event"
    },
    {
      "anonymous": false,
      "inputs": [
        {
          "indexed": true,
          "internalType": "address",
          "name": "escrow",
          "type": "address"
        },
        {
          "indexed": true,
          "internalType": "address",
          "name": "submitter",
          "type": "address"
        },
        {
          "indexed": false,
          "internalType": "string",
          "name": "evidenceURI",
          "type": "string"
        }
      ],
      "name": "EvidenceSubmitted",
      "type": "event"
    },
    {
      "anonymous": false,
      "inputs": [
        {
          "indexed": true,
          "internalType": "address",
          "name": "newSigner",
          "type": "address"
        }
      ],
      "name": "OracleSignerUpdated",
      "type": "event"
    },
    {
      "inputs": [
        {
          "internalType": "address",
          "name": "escrowAddress",
          "type": "address"
        }
      ],
      "name": "getAllEvidence",
      "outputs": [
        {
          "components": [
            {
              "internalType": "address",
              "name": "submitter",
              "type": "address"
            },
            {
              "internalType": "string",
              "name": "uri",
              "type": "string"
            },
            {
              "internalType": "uint256",
              "name": "submittedAt",
              "type": "uint256"
            }
          ],
          "internalType": "struct AIArbiter.Evidence[]",
          "name": "",
          "type": "tuple[]"
        }
      ],
      "stateMutability": "view",
      "type": "function"
    },
    {
      "inputs": [
        {
          "internalType": "address",
          "name": "escrowAddress",
          "type": "address"
        },
        {
          "internalType": "uint256",
          "name": "index",
          "type": "uint256"
        }
      ],
      "name": "getEvidence",
      "outputs": [
        {
          "components": [
            {
              "internalType": "address",
              "name": "submitter",
              "type": "address"
            },
            {
              "internalType": "string",
              "name": "uri",
              "type": "string"
            },
            {
              "internalType": "uint256",
              "name": "submittedAt",
              "type": "uint256"
            }
          ],
          "internalType": "struct AIArbiter.Evidence",
          "name": "",
          "type": "tuple"
        }
      ],
      "stateMutability": "view",
      "type": "function"
    },
    {
      "inputs": [
        {
          "internalType": "address",
          "name": "escrowAddress",
          "type": "address"
        }
      ],
      "name": "getEvidenceCount",
      "outputs": [
        {
          "internalType": "uint256",
          "name": "",
          "type": "uint256"
        }
      ],
      "stateMutability": "view",
      "type": "function"
    },
    {
      "inputs": [],
      "name": "oracleSigner",
      "outputs": [
        {
          "internalType": "address",
          "name": "",
          "type": "address"
        }
      ],
      "stateMutability": "view",
      "type": "function"
    },
    {
      "inputs": [],
      "name": "owner",
      "outputs": [
        {
          "internalType": "address",
          "name": "",
          "type": "address"
        }
      ],
      "stateMutability": "view",
      "type": "function"
    },
    {
      "inputs": [
        {
          "internalType": "address",
          "name": "escrowAddress",
          "type": "address"
        },
        {
          "internalType": "uint256",
          "name": "milestoneIndex",
          "type": "uint256"
        }
      ],
      "name": "resolveMilestoneRefund",
      "outputs": [],
      "stateMutability": "nonpayable",
      "type": "function"
    },
    {
      "inputs": [
        {
          "internalType": "address",
          "name": "escrowAddress",
          "type": "address"
        },
        {
          "internalType": "uint256",
          "name": "milestoneIndex",
          "type": "uint256"
        }
      ],
      "name": "resolveMilestoneRelease",
      "outputs": [],
      "stateMutability": "nonpayable",
      "type": "function"
    },
    {
      "inputs": [
        {
          "internalType": "address",
          "name": "escrowAddress",
          "type": "address"
        }
      ],
      "name": "resolveRefund",
      "outputs": [],
      "stateMutability": "nonpayable",
      "type": "function"
    },
    {
      "inputs": [
        {
          "internalType": "address",
          "name": "escrowAddress",
          "type": "address"
        }
      ],
      "name": "resolveRelease",
      "outputs": [],
      "stateMutability": "nonpayable",
      "type": "function"
    },
    {
      "inputs": [
        {
          "internalType": "address",
          "name": "newSigner",
          "type": "address"
        }
      ],
      "name": "setOracleSigner",
      "outputs": [],
      "stateMutability": "nonpayable",
      "type": "function"
    },
    {
      "inputs": [
        {
          "internalType": "address",
          "name": "escrowAddress",
          "type": "address"
        },
        {
          "internalType": "string",
          "name": "evidenceURI",
          "type": "string"
        }
      ],
      "name": "submitEvidence",
      "outputs": [],
      "stateMutability": "nonpayable",
      "type": "function"
    },
    {
      "inputs": [
        {
          "internalType": "address",
          "name": "newOwner",
          "type": "address"
        }
      ],
      "name": "transferOwnership",
      "outputs": [],
      "stateMutability": "nonpayable",
      "type": "function"
    }
  ],
  "bytecode": "0x6080346100e757601f610ee638819003918201601f19168301916001600160401b038311848410176100eb578084926020946040528339810103126100e757516001600160a01b038116908190036100e75760017f9b779b17422d0df92223018b32b4d1fa46e071723d6817e2486d003becc55f005580156100a25760018060a01b031933815f5416175f556001541617600155604051610de690816101008239f35b60405162461bcd60e51b815260206004820152601560248201527f496e76616c6964206f7261636c65207369676e657200000000000000000000006044820152606490fd5b5f80fd5b634e487b7160e01b5f52604160045260245ffdfe60806040818152600480361015610014575f80fd5b5f925f3560e01c9081631709a61b14610aa15750806328bff9db146109f25780635a2b6e681461091b5780635bb5e55b146105b75780638bb6d1331461057f5780638da5cb5b14610557578063b254ee4a1461049357838163b6be4669146103d2578163be469d8b1461031957508063c3794be514610214578063f2fde38b1461018f5763fad64c1d146100a6575f80fd5b82913461018b578060031936011261018b576100c0610ac4565b6001546001600160a01b0391906100da9083163314610b78565b6100e2610d41565b1691825f80516020610d7183398151915283518061011b816060906020815260066020820152651c99599d5b9960d21b60408201520190565b0390a2823b156101865783926024849284519586938492634c909aa960e01b84528435908401525af190811561017d5750610166575b5060015f80516020610d918339815191525580f35b61016f90610bb1565b61017a57805f610151565b80fd5b513d84823e3d90fd5b505050fd5b5050fd5b5034610210576020366003190112610210576101a9610ac4565b835491906001600160a01b03906101c33383861614610b40565b169283156101dd5750506001600160a01b03191617815580f35b906020606492519162461bcd60e51b8352820152600d60248201526c24b73b30b634b21037bbb732b960991b6044820152fd5b8280fd5b508290346103155760209081600319360112610210576001600160a01b0361023a610ac4565b168352600282528383209182549167ffffffffffffffff83116103025750929084519061026c858260051b0183610bf5565b8082528482018094845285842084915b8383106102dd57505050508451938085019181865251809252858501958260051b8601019392955b8287106102b15785850386f35b9091929382806102cd600193603f198a82030186528851610ada565b96019201960195929190926102a4565b6003886001926102f0859b98999b610c7c565b8152019201920191909694939661027c565b634e487b7160e01b855260419052602484fd5b5080fd5b9290503461018b57602036600319011261018b57610335610ac4565b6001546001600160a01b03919061034f9083163314610b78565b610357610d41565b1691825f80516020610d71833981519152835180610390816060906020815260066020820152651c99599d5b9960d21b60408201520190565b0390a2823b156101865781516318c5c17160e11b81529284918491829084905af190811561017d5750610166575060015f80516020610d918339815191525580f35b9290503461018b578060031936011261018b576103ed610ac4565b6001546001600160a01b0391906104079083163314610b78565b61040f610d41565b1691825f80516020610d718339815191528351806104498160609060208152600760208201526672656c6561736560c81b60408201520190565b0390a2823b156101865783926024849284519586938492633f4e7c0b60e01b84528435908401525af190811561017d5750610166575060015f80516020610d918339815191525580f35b508290346103155782600319360112610315576104ae610ac4565b91602435918451936104bf85610bd9565b8285528286602096606088820152015260018060a01b031690818352600285528583205484101561051e575061051a9285836105049361050a95526002875220610c17565b50610c7c565b9251928284938452830190610ada565b0390f35b855162461bcd60e51b81529081018590526013602482015272496e646578206f7574206f6620626f756e647360681b6044820152606490fd5b505034610315578160031936011261031557905490516001600160a01b039091168152602090f35b5050346103155760203660031901126103155760209181906001600160a01b036105a7610ac4565b1681526002845220549051908152f35b509190346103155780600319360112610315576105d2610ac4565b9060249384359067ffffffffffffffff9283831161091757366023840112156109175782820135848111610913578784019388823692010111610913576001600160a01b039586169485156108e05781156108ad578790868252602094600286528483209185519161064383610bd9565b338352601f199081601f8801169b8c946106618b8b51970187610bf5565b888652888c8c880137878b8a880101528a8101958652898101964288528054906801000000000000000082101561089957906106a291600182018155610c17565b989098610886575051166bffffffffffffffffffffffff60a01b8754161786556001860193519081519384116108745750908392916106e58e9897969554610c44565b8a601f821161081c575b50508991601f84116001146107755750937fb194affc453d47bcffc903849c00f41e79feeba14c32bf40f6d563cd71b6ad5c9a93838897946002948c9a988c9261076a575b50508160011b915f199060031b1c19161790555b519101558184519780895288015283870137840101528133958101030190a380f35b015190505f80610734565b8489528a89209b969594939291908316895b8181106107ec5750837fb194affc453d47bcffc903849c00f41e79feeba14c32bf40f6d563cd71b6ad5c9d8a9997948d9b999794600297600195106107d4575b505050811b019055610748565b01515f1960f88460031b161c191690555f80806107c7565b93959799509091939597999a806001819e8786015181550195019301908f9997959392919c9b9a9896949c610787565b90919293949596979886815220601f850160051c8101918b861061086a575b908f999897969594939291601f0160051c01905b81811061085d57508a6106ef565b9889558e9860010161084f565b909150819061083b565b634e487b7160e01b8e52604181528e8efd5b915050808f92634e487b7160e01b825252fd5b5050634e487b7160e01b8852604183528f88fd5b825162461bcd60e51b8152602081860152600e818b01526d456d7074792065766964656e636560901b6044820152606490fd5b825162461bcd60e51b8152602081860152600e818b01526d496e76616c696420657363726f7760901b6044820152606490fd5b8680fd5b8580fd5b5090346109ee5760203660031901126109ee57610936610ac4565b6001546001600160a01b0391906109509083163314610b78565b610958610d41565b1691825f80516020610d718339815191528351806109928160609060208152600760208201526672656c6561736560c81b60408201520190565b0390a2823b156109ee578151631f81ff4d60e21b8152925f918491829084905af19081156109e557506109d4575060015f80516020610d918339815191525580f35b6109de9150610bb1565b5f80610151565b513d5f823e3d90fd5b5f80fd5b50346109ee5760203660031901126109ee57610a0c610ac4565b5f546001600160a01b039190610a259083163314610b40565b16918215610a6657600180546001600160a01b03191684179055827f9787ad339c4bc9e4b4743a2e50da52ee5b40e7096843872095b8280a501522465f80a2005b906020606492519162461bcd60e51b8352820152601560248201527424b73b30b634b21037b930b1b6329039b4b3b732b960591b6044820152fd5b346109ee575f3660031901126109ee576001546001600160a01b03168152602090f35b600435906001600160a01b03821682036109ee57565b919060018060a01b03835116815260208084015193606060208401528451918260608501525f5b838110610b2c57505060809394506040905f85848601015201516040830152601f8019910116010190565b868101820151858201608001528101610b01565b15610b4757565b60405162461bcd60e51b81526020600482015260096024820152682737ba1037bbb732b960b91b6044820152606490fd5b15610b7f57565b60405162461bcd60e51b815260206004820152600a6024820152694e6f74206f7261636c6560b01b6044820152606490fd5b67ffffffffffffffff8111610bc557604052565b634e487b7160e01b5f52604160045260245ffd5b6060810190811067ffffffffffffffff821117610bc557604052565b90601f8019910116810190811067ffffffffffffffff821117610bc557604052565b8054821015610c30575f52600360205f20910201905f90565b634e487b7160e01b5f52603260045260245ffd5b90600182811c92168015610c72575b6020831014610c5e57565b634e487b7160e01b5f52602260045260245ffd5b91607f1691610c53565b90604051610c8981610bd9565b809260018060a01b038154168252600180820190604051915f90805492610caf84610c44565b918286526020946001811690815f14610d215750600114610ceb575b5050509160409391610ce1826002950383610bf5565b8501520154910152565b5f9081528481209093505b828410610d0e575050508201810181610ce184610ccb565b8054868501860152928401928101610cf6565b60ff191686880152505050151560051b83018201905081610ce184610ccb565b5f80516020610d918339815191526002815414610d5e5760029055565b604051633ee5aeb560e01b8152600490fdfe01104c1f0f7c8bd5045c4ac98e183effd8439668fad34f967a6594425487727e9b779b17422d0df92223018b32b4d1fa46e071723d6817e2486d003becc55f00a2646970667358221220dac0fc3fc63229e05a19c8763422cd6acc863f183be90102ef1a716494d5fe2d64736f6c63430008180033",
  "linkReferences": {},
  "deployedLinkReferences": {},
  "immutableReferences": {},
  "inputSourceName": "project/contracts/AIArbiter.sol",
  "buildInfoId": "solc-0_8_24-4a4225a40358cf888f00ae64ce53b2b8f766b6a3"
}