{
  "_format": "hh3-artifact-1",
  "contractName": "SimpleEscrow",
  "sourceName": "contracts/SimpleEscrow.sol",
  "abi": [
    {
      "inputs": [
        {
          "internalType": "address",
          "name": "_depositor",
          "type": "address"
        },
        {
          "internalType": "address",
          "name": "_beneficiary",
          "type": "address"
        },
        {
          "internalType": "address",
          "name": "_arbiter",
          "type": "address"
        },
        {
          "internalType": "address",
          "name": "_token",
          "type": "address"
        }
      ],
      "stateMutability": "nonpayable",
      "type": "constructor"
    },
    {
      "inputs": [],
      "name": "ReentrancyGuardReentrantCall",
      "type": "error"
    },
    {
      "inputs": [
        {
          "internalType": "address",
          "name": "token",
          "type": "address"
        }
      ],
      "name": "SafeERC20FailedOperation",
      "type": "error"
    },
    {
      "anonymous": false,
      "inputs": [
        {
          "indexed": true,
          "internalType": "address",
          "name": "depositor",
          "type": "address"
        },
        {
          "indexed": false,
          "internalType": "uint256",
          "name": "amount",
          "type": "uint256"
        }
      ],
      "name": "Deposited",
      "type": "event"
    },
    {
      "anonymous": false,
      "inputs": [
        {
          "indexed": true,
          "internalType": "address",
          "name": "by",
          "type": "address"
        }
      ],
      "name": "Disputed",
      "type": "event"
    },
    {
      "anonymous": false,
      "inputs": [
        {
          "indexed": true,
          "internalType": "address",
          "name": "to",
          "type": "address"
        },
        {
          "indexed": false,
          "internalType": "uint256",
          "name": "amount",
          "type": "uint256"
        }
      ],
      "name": "Refunded",
      "type": "event"
    },
    {
      "anonymous": false,
      "inputs": [
        {
          "indexed": true,
          "internalType": "address",
          "name": "to",
          "type": "address"
        },
        {
          "indexed": false,
          "internalType": "uint256",
          "name": "amount",
          "type": "uint256"
        }
      ],
      "name": "Released",
      "type": "event"
    },
    {
      "inputs": [],
      "name": "amount",
      "outputs": [
        {
          "internalType": "uint256",
          "name": "",
          "type": "uint256"
        }
      ],
      "stateMutability": "view",
      "type": "function"
    },
    {
      "inputs": [],
      "name": "arbiter",
      "outputs": [
        {
          "internalType": "address",
          "name": "",
          "type": "address"
        }
      ],
      "stateMutability": "view",
      "type": "function"
    },
    {
      "inputs": [],
      "name": "beneficiary",
      "outputs": [
        {
          "internalType": "address",
          "name": "",
          "type": "address"
        }
      ],
      "stateMutability": "view",
      "type": "function"
    },
    {
      "inputs": [
        {
          "internalType": "uint256",
          "name": "_amount",
          "type": "uint256"
        }
      ],
      "name": "deposit",
      "outputs": [],
      "stateMutability": "payable",
      "type": "function"
    },
    {
      "inputs": [],
      "name": "depositor",
      "outputs": [
        {
          "internalType": "address",
          "name": "",
          "type": "address"
        }
      ],
      "stateMutability": "view",
      "type": "function"
    },
    {
      "inputs": [],
      "name": "dispute",
      "outputs": [],
      "stateMutability": "nonpayable",
      "type": "function"
    },
    {
      "inputs": [],
      "name": "release",
      "outputs": [],
      "stateMutability": "nonpayable",
      "type": "function"
    },
    {
      "inputs": [],
      "name": "resolveRefund",
      "outputs": [],
      "stateMutability": "nonpayable",
      "type": "function"
    },
    {
      "inputs": [],
      "name": "resolveRelease",
      "outputs": [],
      "stateMutability": "nonpayable",
      "type": "function"
    },
    {
      "inputs": [],
      "name": "state",
      "outputs": [
        {
          "internalType": "enum SimpleEscrow.State",
          "name": "",
          "type": "uint8"
        }
      ],
      "stateMutability": "view",
      "type": "function"
    },
    {
      "inputs": [],
      "name": "token",
      "outputs": [
        {
          "internalType": "address",
          "name": "",
          "type": "address"
        }
      ],
      "stateMutability": "view",
      "type": "function"
    }
  ],
  "bytecode": "0x610100346101e357601f610b5538819003918201601f191683019291906001600160401b038411838510176101e75781608092849260409687528339810103126101e35761004c816101fb565b90610059602082016101fb565b61007060606100698685016101fb565b93016101fb565b60017f9b779b17422d0df92223018b32b4d1fa46e071723d6817e2486d003becc55f0055926001600160a01b03808216156101ab5780831615610167578316156101315760805260a05260c05260e05260ff19600154166001555161094590816102108239608051818181610135015281816101d9015281816104d80152610675015260a0518181816105cc0152610764015260c05181818160a90152818161056e015261061a015260e05181818160f00152818161027a01526108490152f35b845162461bcd60e51b815260206004820152600f60248201526e24b73b30b634b21030b93134ba32b960891b6044820152606490fd5b855162461bcd60e51b815260206004820152601360248201527f496e76616c69642062656e6566696369617279000000000000000000000000006044820152606490fd5b855162461bcd60e51b815260206004820152601160248201527024b73b30b634b2103232b837b9b4ba37b960791b6044820152606490fd5b5f80fd5b634e487b7160e01b5f52604160045260245ffd5b51906001600160a01b03821682036101e35756fe604060808152600480361015610013575f80fd5b5f3560e01c908163318b82e2146105fb57816338af3eed146105b85781637e07fd341461055857816386d1a69f146104c2578163aa8c217c146104a5578163b6b55f2514610246578163c19d93fb14610208578163c7c4ff46146101c5578163f240f7c31461011f57508063fc0c546a146100dc5763fe25e00a14610096575f80fd5b346100d8575f3660031901126100d857517f00000000000000000000000000000000000000000000000000000000000000006001600160a01b03168152602090f35b5f80fd5b50346100d8575f3660031901126100d857517f00000000000000000000000000000000000000000000000000000000000000006001600160a01b03168152602090f35b346100d8575f3660031901126100d857610163337f00000000000000000000000000000000000000000000000000000000000000006001600160a01b0316146107c1565b60015460ff81169160058310156101b25750610183600160039314610716565b60ff191617600155337f695fbf2fe28b4fde5705122279ffc4160ebfc0f45e4d96f7e6699001be5062ef5f80a2005b602190634e487b7160e01b5f525260245ffd5b82346100d8575f3660031901126100d857517f00000000000000000000000000000000000000000000000000000000000000006001600160a01b03168152602090f35b82346100d8575f3660031901126100d85760ff60015416905190600581101561023357602092508152f35b602183634e487b7160e01b5f525260245ffd5b826020806003193601126100d8578235916001549360ff85166005811015610492576102729015610716565b831561045e577f00000000000000000000000000000000000000000000000000000000000000006001600160a01b03168061032157508334036102ea575060017f2da466a7b24304f47e87fa2e1e5a81b9831ce54fec19055ce277ca2f39ba42c493945b855f5560ff191617600155519283523392a2005b82606492519162461bcd60e51b8352820152601360248201527208aa89040c2dadeeadce840dad2e6dac2e8c6d606b1b6044820152fd5b3461041d57836024918451928380926370a0823160e01b825230878301525afa908115610413579085915f916103b9575b5010610383575060017f2da466a7b24304f47e87fa2e1e5a81b9831ce54fec19055ce277ca2f39ba42c493946102d6565b82606492519162461bcd60e51b83528201526012602482015271151bdad95b881b9bdd081c9958d95a5d995960721b6044820152fd5b915050833d851161040c575b601f8101601f1916820167ffffffffffffffff8111838210176103f957859183918652810103126100d85784905187610352565b604184634e487b7160e01b5f525260245ffd5b503d6103c5565b83513d5f823e3d90fd5b508280606493519262461bcd60e51b845283015260248201527f446f206e6f742073656e642045544820666f7220746f6b656e20657363726f776044820152fd5b82606492519162461bcd60e51b8352820152601060248201526f04d757374206465706f736974203e20360841b6044820152fd5b602182634e487b7160e01b5f525260245ffd5b82346100d8575f3660031901126100d8576020905f549051908152f35b346100d8575f3660031901126100d857610506337f00000000000000000000000000000000000000000000000000000000000000006001600160a01b0316146107c1565b60ff600154169060058210156101b25761052260018314610716565b61052a6107fd565b610532610752565b60017f9b779b17422d0df92223018b32b4d1fa46e071723d6817e2486d003becc55f0055005b346100d8575f3660031901126100d85761059c337f00000000000000000000000000000000000000000000000000000000000000006001600160a01b0316146106dc565b60ff600154169060058210156101b25761052260038314610716565b82346100d8575f3660031901126100d857517f00000000000000000000000000000000000000000000000000000000000000006001600160a01b03168152602090f35b82346100d8575f3660031901126100d8576001600160a01b03610641337f00000000000000000000000000000000000000000000000000000000000000008316146106dc565b60ff6001541660058110156106c9579261066060036105329514610716565b6106686107fd565b60ff1960015416176001557f0000000000000000000000000000000000000000000000000000000000000000907fd7dee2702d63ad89917b6a4da9981c90c4d24f8c2bdfd64c604ecae57d8d065160205f54945192858452841692a261083f565b602184634e487b7160e01b5f525260245ffd5b156106e357565b60405162461bcd60e51b815260206004820152600b60248201526a2737ba1030b93134ba32b960a91b6044820152606490fd5b1561071d57565b60405162461bcd60e51b815260206004820152600d60248201526c496e76616c696420737461746560981b6044820152606490fd5b600260ff1960015416176001556107bf7f00000000000000000000000000000000000000000000000000000000000000005f54906040518281527fb21fb52d5749b80f3182f8c6992236b5e5576681880914484d7f4c9b062e619e602060018060a01b03841692a261083f565b565b156107c857565b60405162461bcd60e51b815260206004820152600d60248201526c2737ba103232b837b9b4ba37b960991b6044820152606490fd5b7f9b779b17422d0df92223018b32b4d1fa46e071723d6817e2486d003becc55f00600281541461082d5760029055565b604051633ee5aeb560e01b8152600490fd5b6001600160a01b037f000000000000000000000000000000000000000000000000000000000000000081168061089f57505f80938193829383918315610895575b1690f11561088a57565b6040513d5f823e3d90fd5b6108fc9250610880565b9192906040519363a9059cbb60e01b5f521660045260245260205f60448180855af160015f51148116156108f0575b82604052156108db575050565b635274afe760e01b8252600482015260249150fd5b600181151661090657813b15153d1516166108ce565b823d5f823e3d90fdfea26469706673582212208ea94d22853104104b1ec5dcbaef474d626ea72b70d27c031723e4041afc293e64736f6c63430008180033",
  "linkReferences": {},
  "deployedLinkReferences": {},
  "immutableReferences": {
    "4088": [
      {
        "length": 32,
        "start": 309
      },
      {
        "length": 32,
        "start": 473
      },
      {
        "length": 32,
        "start": 1240
      },
      {
        "length": 32,
        "start": 1653
      }
    ],
    "4090": [
      {
        "length": 32,
        "start": 1484
      },
      {
        "length": 32,
        "start": 1892
      }
    ],
    "4092": [
      {
        "length": 32,
        "start": 169
      },
      {
        "length": 32,
        "start": 1390
      },
      {
        "length": 32,
        "start": 1562
      }
    ],
    "4095": [
      {
        "length": 32,
        "start": 240
      },
      {
        "length": 32,
        "start": 634
      },
      {
        "length": 32,
        "start": 2121
      }
    ]
  },
  "inputSourceName": "project/contracts/SimpleEscrow.sol",
  "buildInfoId": "solc-0_8_24-4a4225a40358cf888f00ae64ce53b2b8f766b6a3"
}